{
  "_format": "hh-sol-artifact-1",
  "contractName": "TicketMarketplace",
  "sourceName": "contracts/TicketMarketplace.sol",
  "abi": [
    {
      "inputs": [
        {
          "internalType": "address",
          "name": "_ERC20Address",
          "type": "address"
        }
      ],
      "stateMutability": "nonpayable",
      "type": "constructor"
    },
    {
      "anonymous": false,
      "inputs": [
        {
          "indexed": false,
          "internalType": "address",
          "name": "newERC20Address",
          "type": "address"
        }
      ],
      "name": "ERC20AddressUpdate",
      "type": "event"
    },
    {
      "anonymous": false,
      "inputs": [
        {
          "indexed": false,
          "internalType": "uint128",
          "name": "eventId",
          "type": "uint128"
        },
        {
          "indexed": false,
          "internalType": "uint128",
          "name": "maxTickets",
          "type": "uint128"
        },
        {
          "indexed": false,
          "internalType": "uint256",
          "name": "pricePerTicket",
          "type": "uint256"
        },
        {
          "indexed": false,
          "internalType": "uint256",
          "name": "pricePerTicketERC20",
          "type": "uint256"
        }
      ],
      "name": "EventCreated",
      "type": "event"
    },
    {
      "anonymous": false,
      "inputs": [
        {
          "indexed": false,
          "internalType": "uint128",
          "name": "eventId",
          "type": "uint128"
        },
        {
          "indexed": false,
          "internalType": "uint128",
          "name": "newMaxTickets",
          "type": "uint128"
        }
      ],
      "name": "MaxTicketsUpdate",
      "type": "event"
    },
    {
      "anonymous": false,
      "inputs": [
        {
          "indexed": false,
          "internalType": "uint128",
          "name": "eventId",
          "type": "uint128"
        },
        {
          "indexed": false,
          "internalType": "uint256",
          "name": "newPrice",
          "type": "uint256"
        },
        {
          "indexed": false,
          "internalType": "string",
          "name": "priceType",
          "type": "string"
        }
      ],
      "name": "PriceUpdate",
      "type": "event"
    },
    {
      "anonymous": false,
      "inputs": [
        {
          "indexed": false,
          "internalType": "uint128",
          "name": "eventId",
          "type": "uint128"
        },
        {
          "indexed": false,
          "internalType": "uint128",
          "name": "numberOfTickets",
          "type": "uint128"
        },
        {
          "indexed": false,
          "internalType": "string",
          "name": "boughtWith",
          "type": "string"
        }
      ],
      "name": "TicketsBought",
      "type": "event"
    },
    {
      "inputs": [],
      "name": "ERC20Address",
      "outputs": [
        {
          "internalType": "address",
          "name": "",
          "type": "address"
        }
      ],
      "stateMutability": "view",
      "type": "function"
    },
    {
      "inputs": [
        {
          "internalType": "uint128",
          "name": "eventId",
          "type": "uint128"
        },
        {
          "internalType": "uint128",
          "name": "ticketCount",
          "type": "uint128"
        }
      ],
      "name": "buyTickets",
      "outputs": [],
      "stateMutability": "payable",
      "type": "function"
    },
    {
      "inputs": [
        {
          "internalType": "uint128",
          "name": "eventId",
          "type": "uint128"
        },
        {
          "internalType": "uint128",
          "name": "ticketCount",
          "type": "uint128"
        }
      ],
      "name": "buyTicketsERC20",
      "outputs": [],
      "stateMutability": "nonpayable",
      "type": "function"
    },
    {
      "inputs": [
        {
          "internalType": "uint128",
          "name": "maxTickets",
          "type": "uint128"
        },
        {
          "internalType": "uint256",
          "name": "pricePerTicket",
          "type": "uint256"
        },
        {
          "internalType": "uint256",
          "name": "pricePerTicketERC20",
          "type": "uint256"
        }
      ],
      "name": "createEvent",
      "outputs": [],
      "stateMutability": "nonpayable",
      "type": "function"
    },
    {
      "inputs": [],
      "name": "currentEventId",
      "outputs": [
        {
          "internalType": "uint128",
          "name": "",
          "type": "uint128"
        }
      ],
      "stateMutability": "view",
      "type": "function"
    },
    {
      "inputs": [
        {
          "internalType": "uint128",
          "name": "",
          "type": "uint128"
        }
      ],
      "name": "events",
      "outputs": [
        {
          "internalType": "uint128",
          "name": "nextTicketToSell",
          "type": "uint128"
        },
        {
          "internalType": "uint128",
          "name": "maxTickets",
          "type": "uint128"
        },
        {
          "internalType": "uint256",
          "name": "pricePerTicket",
          "type": "uint256"
        },
        {
          "internalType": "uint256",
          "name": "pricePerTicketERC20",
          "type": "uint256"
        }
      ],
      "stateMutability": "view",
      "type": "function"
    },
    {
      "inputs": [],
      "name": "nftContract",
      "outputs": [
        {
          "internalType": "address",
          "name": "",
          "type": "address"
        }
      ],
      "stateMutability": "view",
      "type": "function"
    },
    {
      "inputs": [],
      "name": "owner",
      "outputs": [
        {
          "internalType": "address",
          "name": "",
          "type": "address"
        }
      ],
      "stateMutability": "view",
      "type": "function"
    },
    {
      "inputs": [
        {
          "internalType": "address",
          "name": "newERC20Address",
          "type": "address"
        }
      ],
      "name": "setERC20Address",
      "outputs": [],
      "stateMutability": "nonpayable",
      "type": "function"
    },
    {
      "inputs": [
        {
          "internalType": "uint128",
          "name": "eventId",
          "type": "uint128"
        },
        {
          "internalType": "uint128",
          "name": "newMaxTickets",
          "type": "uint128"
        }
      ],
      "name": "setMaxTicketsForEvent",
      "outputs": [],
      "stateMutability": "nonpayable",
      "type": "function"
    },
    {
      "inputs": [
        {
          "internalType": "uint128",
          "name": "eventId",
          "type": "uint128"
        },
        {
          "internalType": "uint256",
          "name": "price",
          "type": "uint256"
        }
      ],
      "name": "setPriceForTicketERC20",
      "outputs": [],
      "stateMutability": "nonpayable",
      "type": "function"
    },
    {
      "inputs": [
        {
          "internalType": "uint128",
          "name": "eventId",
          "type": "uint128"
        },
        {
          "internalType": "uint256",
          "name": "price",
          "type": "uint256"
        }
      ],
      "name": "setPriceForTicketETH",
      "outputs": [],
      "stateMutability": "nonpayable",
      "type": "function"
    }
  ],
  "bytecode": "0x60806040523480156200001157600080fd5b5060405162004928380380620049288339818101604052810190620000379190620001ea565b33600160006101000a81548173ffffffffffffffffffffffffffffffffffffffff021916908373ffffffffffffffffffffffffffffffffffffffff16021790555080600260006101000a81548173ffffffffffffffffffffffffffffffffffffffff021916908373ffffffffffffffffffffffffffffffffffffffff1602179055506000600360006101000a8154816fffffffffffffffffffffffffffffffff02191690836fffffffffffffffffffffffffffffffff16021790555030604051620001029062000172565b6200010e91906200022d565b604051809103906000f0801580156200012b573d6000803e3d6000fd5b506000806101000a81548173ffffffffffffffffffffffffffffffffffffffff021916908373ffffffffffffffffffffffffffffffffffffffff160217905550506200024a565b61269a806200228e83390190565b600080fd5b600073ffffffffffffffffffffffffffffffffffffffff82169050919050565b6000620001b28262000185565b9050919050565b620001c481620001a5565b8114620001d057600080fd5b50565b600081519050620001e481620001b9565b92915050565b60006020828403121562000203576200020262000180565b5b60006200021384828501620001d3565b91505092915050565b6200022781620001a5565b82525050565b60006020820190506200024460008301846200021c565b92915050565b612034806200025a6000396000f3fe6080604052600436106100a75760003560e01c80637df507cc116100645780637df507cc146101975780638a5d06a4146101c05780638da5cb5b146101e9578063a6021ace14610214578063d56d229d1461023f578063df5c0e0a1461026a576100a7565b8063091dbbd7146100ac57806327ff8241146100d75780633541bfac1461010057806341bec0d21461011c578063533ef2ae146101455780635436940d1461016e575b600080fd5b3480156100b857600080fd5b506100c16102aa565b6040516100ce91906115e1565b60405180910390f35b3480156100e357600080fd5b506100fe60048036038101906100f99190611663565b6102cc565b005b61011a600480360381019061011591906116b6565b610551565b005b34801561012857600080fd5b50610143600480360381019061013e9190611754565b6109ae565b005b34801561015157600080fd5b5061016c600480360381019061016791906116b6565b610ab9565b005b34801561017a57600080fd5b5061019560048036038101906101909190611781565b610cb4565b005b3480156101a357600080fd5b506101be60048036038101906101b99190611781565b610dc0565b005b3480156101cc57600080fd5b506101e760048036038101906101e291906116b6565b610ecc565b005b3480156101f557600080fd5b506101fe61148b565b60405161020b91906117d0565b60405180910390f35b34801561022057600080fd5b506102296114b1565b60405161023691906117d0565b60405180910390f35b34801561024b57600080fd5b506102546114d7565b60405161026191906117d0565b60405180910390f35b34801561027657600080fd5b50610291600480360381019061028c91906117eb565b6114fb565b6040516102a19493929190611827565b60405180910390f35b600360009054906101000a90046fffffffffffffffffffffffffffffffff1681565b600160009054906101000a900473ffffffffffffffffffffffffffffffffffffffff1673ffffffffffffffffffffffffffffffffffffffff163373ffffffffffffffffffffffffffffffffffffffff161461035c576040517f08c379a0000000000000000000000000000000000000000000000000000000008152600401610353906118c9565b60405180910390fd5b604051806080016040528060006fffffffffffffffffffffffffffffffff168152602001846fffffffffffffffffffffffffffffffff1681526020018381526020018281525060046000600360009054906101000a90046fffffffffffffffffffffffffffffffff166fffffffffffffffffffffffffffffffff166fffffffffffffffffffffffffffffffff16815260200190815260200160002060008201518160000160006101000a8154816fffffffffffffffffffffffffffffffff02191690836fffffffffffffffffffffffffffffffff16021790555060208201518160000160106101000a8154816fffffffffffffffffffffffffffffffff02191690836fffffffffffffffffffffffffffffffff16021790555060408201518160010155606082015181600201559050507fbba3cf41b02db35646cdcb656bd3d7eb6118e38b7b5fe7928e5af52b8316342f600360009054906101000a90046fffffffffffffffffffffffffffffffff168484846040516104df9493929190611827565b60405180910390a16003600081819054906101000a90046fffffffffffffffffffffffffffffffff168092919061051590611918565b91906101000a8154816fffffffffffffffffffffffffffffffff02191690836fffffffffffffffffffffffffffffffff16021790555050505050565b6000806105aa60046000866fffffffffffffffffffffffffffffffff166fffffffffffffffffffffffffffffffff16815260200190815260200160002060010154846fffffffffffffffffffffffffffffffff16611563565b91509150816105ee576040517f08c379a00000000000000000000000000000000000000000000000000000000081526004016105e590611a0e565b60405180910390fd5b80341015610631576040517f08c379a000000000000000000000000000000000000000000000000000000000815260040161062890611ac6565b60405180910390fd5b60046000856fffffffffffffffffffffffffffffffff166fffffffffffffffffffffffffffffffff16815260200190815260200160002060000160109054906101000a90046fffffffffffffffffffffffffffffffff166fffffffffffffffffffffffffffffffff168360046000876fffffffffffffffffffffffffffffffff166fffffffffffffffffffffffffffffffff16815260200190815260200160002060000160009054906101000a90046fffffffffffffffffffffffffffffffff166106fc9190611ae6565b6fffffffffffffffffffffffffffffffff16111561074f576040517f08c379a000000000000000000000000000000000000000000000000000000000815260040161074690611b9c565b60405180910390fd5b6000846fffffffffffffffffffffffffffffffff169050608081901b905060005b846fffffffffffffffffffffffffffffffff16816fffffffffffffffffffffffffffffffff1610156108d2576000816fffffffffffffffffffffffffffffffff1660046000896fffffffffffffffffffffffffffffffff166fffffffffffffffffffffffffffffffff16815260200190815260200160002060000160009054906101000a90046fffffffffffffffffffffffffffffffff166fffffffffffffffffffffffffffffffff16846108259190611bbc565b61082f9190611bbc565b905060008054906101000a900473ffffffffffffffffffffffffffffffffffffffff1673ffffffffffffffffffffffffffffffffffffffff16638d9c21d433836040518363ffffffff1660e01b815260040161088c929190611bf0565b600060405180830381600087803b1580156108a657600080fd5b505af11580156108ba573d6000803e3d6000fd5b505050505080806108ca90611918565b915050610770565b508360046000876fffffffffffffffffffffffffffffffff166fffffffffffffffffffffffffffffffff16815260200190815260200160002060000160008282829054906101000a90046fffffffffffffffffffffffffffffffff166109389190611ae6565b92506101000a8154816fffffffffffffffffffffffffffffffff02191690836fffffffffffffffffffffffffffffffff1602179055507f437678289f3c609181fcc04b18e39fd94013dd7f6b106b1ddc07e4373fbc5e29858560405161099f929190611c65565b60405180910390a15050505050565b600160009054906101000a900473ffffffffffffffffffffffffffffffffffffffff1673ffffffffffffffffffffffffffffffffffffffff163373ffffffffffffffffffffffffffffffffffffffff1614610a3e576040517f08c379a0000000000000000000000000000000000000000000000000000000008152600401610a35906118c9565b60405180910390fd5b80600260006101000a81548173ffffffffffffffffffffffffffffffffffffffff021916908373ffffffffffffffffffffffffffffffffffffffff1602179055507fb6808491cde2fa94bc13239f71055299ae56401890e101f60f14b614f302454781604051610aae91906117d0565b60405180910390a150565b600160009054906101000a900473ffffffffffffffffffffffffffffffffffffffff1673ffffffffffffffffffffffffffffffffffffffff163373ffffffffffffffffffffffffffffffffffffffff1614610b49576040517f08c379a0000000000000000000000000000000000000000000000000000000008152600401610b40906118c9565b60405180910390fd5b60046000836fffffffffffffffffffffffffffffffff166fffffffffffffffffffffffffffffffff16815260200190815260200160002060000160109054906101000a90046fffffffffffffffffffffffffffffffff166fffffffffffffffffffffffffffffffff16816fffffffffffffffffffffffffffffffff161015610c06576040517f08c379a0000000000000000000000000000000000000000000000000000000008152600401610bfd90611d13565b60405180910390fd5b8060046000846fffffffffffffffffffffffffffffffff166fffffffffffffffffffffffffffffffff16815260200190815260200160002060000160106101000a8154816fffffffffffffffffffffffffffffffff02191690836fffffffffffffffffffffffffffffffff1602179055507fa2dd6a16db7277c967bbf437ca1db8bfd37fa86f5e190a80816926528b848ef68282604051610ca8929190611d33565b60405180910390a15050565b600160009054906101000a900473ffffffffffffffffffffffffffffffffffffffff1673ffffffffffffffffffffffffffffffffffffffff163373ffffffffffffffffffffffffffffffffffffffff1614610d44576040517f08c379a0000000000000000000000000000000000000000000000000000000008152600401610d3b906118c9565b60405180910390fd5b8060046000846fffffffffffffffffffffffffffffffff166fffffffffffffffffffffffffffffffff168152602001908152602001600020600101819055507ffef975c32c24d250ab5d3625f529b4dbf560e21132d0d5e40885207393960a9e8282604051610db4929190611d5c565b60405180910390a15050565b600160009054906101000a900473ffffffffffffffffffffffffffffffffffffffff1673ffffffffffffffffffffffffffffffffffffffff163373ffffffffffffffffffffffffffffffffffffffff1614610e50576040517f08c379a0000000000000000000000000000000000000000000000000000000008152600401610e47906118c9565b60405180910390fd5b8060046000846fffffffffffffffffffffffffffffffff166fffffffffffffffffffffffffffffffff168152602001908152602001600020600201819055507ffef975c32c24d250ab5d3625f529b4dbf560e21132d0d5e40885207393960a9e8282604051610ec0929190611de4565b60405180910390a15050565b600080610f2560046000866fffffffffffffffffffffffffffffffff166fffffffffffffffffffffffffffffffff16815260200190815260200160002060020154846fffffffffffffffffffffffffffffffff16611563565b9150915081610f69576040517f08c379a0000000000000000000000000000000000000000000000000000000008152600401610f6090611a0e565b60405180910390fd5b60046000856fffffffffffffffffffffffffffffffff166fffffffffffffffffffffffffffffffff16815260200190815260200160002060000160109054906101000a90046fffffffffffffffffffffffffffffffff166fffffffffffffffffffffffffffffffff168360046000876fffffffffffffffffffffffffffffffff166fffffffffffffffffffffffffffffffff16815260200190815260200160002060000160009054906101000a90046fffffffffffffffffffffffffffffffff166110349190611ae6565b6fffffffffffffffffffffffffffffffff161115611087576040517f08c379a000000000000000000000000000000000000000000000000000000000815260040161107e90611b9c565b60405180910390fd5b6000600260009054906101000a900473ffffffffffffffffffffffffffffffffffffffff169050818173ffffffffffffffffffffffffffffffffffffffff1663dd62ed3e33306040518363ffffffff1660e01b81526004016110ea929190611e20565b602060405180830381865afa158015611107573d6000803e3d6000fd5b505050506040513d601f19601f8201168201806040525081019061112b9190611e5e565b101561116c576040517f08c379a000000000000000000000000000000000000000000000000000000000815260040161116390611ac6565b60405180910390fd5b8073ffffffffffffffffffffffffffffffffffffffff166323b872dd3330856040518463ffffffff1660e01b81526004016111a993929190611e8b565b6020604051808303816000875af11580156111c8573d6000803e3d6000fd5b505050506040513d601f19601f820116820180604052508101906111ec9190611efa565b61122b576040517f08c379a000000000000000000000000000000000000000000000000000000000815260040161122290611f73565b60405180910390fd5b6000856fffffffffffffffffffffffffffffffff169050608081901b905060005b856fffffffffffffffffffffffffffffffff16816fffffffffffffffffffffffffffffffff1610156113ae576000816fffffffffffffffffffffffffffffffff16600460008a6fffffffffffffffffffffffffffffffff166fffffffffffffffffffffffffffffffff16815260200190815260200160002060000160009054906101000a90046fffffffffffffffffffffffffffffffff166fffffffffffffffffffffffffffffffff16846113019190611bbc565b61130b9190611bbc565b905060008054906101000a900473ffffffffffffffffffffffffffffffffffffffff1673ffffffffffffffffffffffffffffffffffffffff16638d9c21d433836040518363ffffffff1660e01b8152600401611368929190611bf0565b600060405180830381600087803b15801561138257600080fd5b505af1158015611396573d6000803e3d6000fd5b505050505080806113a690611918565b91505061124c565b508460046000886fffffffffffffffffffffffffffffffff166fffffffffffffffffffffffffffffffff16815260200190815260200160002060000160008282829054906101000a90046fffffffffffffffffffffffffffffffff166114149190611ae6565b92506101000a8154816fffffffffffffffffffffffffffffffff02191690836fffffffffffffffffffffffffffffffff1602179055507f437678289f3c609181fcc04b18e39fd94013dd7f6b106b1ddc07e4373fbc5e29868660405161147b929190611f93565b60405180910390a1505050505050565b600160009054906101000a900473ffffffffffffffffffffffffffffffffffffffff1681565b600260009054906101000a900473ffffffffffffffffffffffffffffffffffffffff1681565b60008054906101000a900473ffffffffffffffffffffffffffffffffffffffff1681565b60046020528060005260406000206000915090508060000160009054906101000a90046fffffffffffffffffffffffffffffffff16908060000160109054906101000a90046fffffffffffffffffffffffffffffffff16908060010154908060020154905084565b6000806000840361157b5760016000915091506115af565b600083850290508385828161159357611592611fcf565b5b04146115a65760008092509250506115af565b60018192509250505b9250929050565b60006fffffffffffffffffffffffffffffffff82169050919050565b6115db816115b6565b82525050565b60006020820190506115f660008301846115d2565b92915050565b600080fd5b61160a816115b6565b811461161557600080fd5b50565b60008135905061162781611601565b92915050565b6000819050919050565b6116408161162d565b811461164b57600080fd5b50565b60008135905061165d81611637565b92915050565b60008060006060848603121561167c5761167b6115fc565b5b600061168a86828701611618565b935050602061169b8682870161164e565b92505060406116ac8682870161164e565b9150509250925092565b600080604083850312156116cd576116cc6115fc565b5b60006116db85828601611618565b92505060206116ec85828601611618565b9150509250929050565b600073ffffffffffffffffffffffffffffffffffffffff82169050919050565b6000611721826116f6565b9050919050565b61173181611716565b811461173c57600080fd5b50565b60008135905061174e81611728565b92915050565b60006020828403121561176a576117696115fc565b5b60006117788482850161173f565b91505092915050565b60008060408385031215611798576117976115fc565b5b60006117a685828601611618565b92505060206117b78582860161164e565b9150509250929050565b6117ca81611716565b82525050565b60006020820190506117e560008301846117c1565b92915050565b600060208284031215611801576118006115fc565b5b600061180f84828501611618565b91505092915050565b6118218161162d565b82525050565b600060808201905061183c60008301876115d2565b61184960208301866115d2565b6118566040830185611818565b6118636060830184611818565b95945050505050565b600082825260208201905092915050565b7f556e617574686f72697a65642061636365737300000000000000000000000000600082015250565b60006118b360138361186c565b91506118be8261187d565b602082019050919050565b600060208201905081810360008301526118e2816118a6565b9050919050565b7f4e487b7100000000000000000000000000000000000000000000000000000000600052601160045260246000fd5b6000611923826115b6565b91506fffffffffffffffffffffffffffffffff8203611945576119446118e9565b5b600182019050919050565b7f4f766572666c6f772068617070656e6564207768696c652063616c63756c617460008201527f696e672074686520746f74616c207072696365206f66207469636b6574732e2060208201527f54727920627579696e6720736d616c6c6572206e756d626572206f662074696360408201527f6b6574732e000000000000000000000000000000000000000000000000000000606082015250565b60006119f860658361186c565b9150611a0382611950565b608082019050919050565b60006020820190508181036000830152611a27816119eb565b9050919050565b7f4e6f7420656e6f7567682066756e647320737570706c69656420746f2062757960008201527f2074686520737065636966696564206e756d626572206f66207469636b65747360208201527f2e00000000000000000000000000000000000000000000000000000000000000604082015250565b6000611ab060418361186c565b9150611abb82611a2e565b606082019050919050565b60006020820190508181036000830152611adf81611aa3565b9050919050565b6000611af1826115b6565b9150611afc836115b6565b925082820190506fffffffffffffffffffffffffffffffff811115611b2457611b236118e9565b5b92915050565b7f576520646f6e277420686176652074686174206d616e79207469636b6574732060008201527f6c65667420746f2073656c6c2100000000000000000000000000000000000000602082015250565b6000611b86602d8361186c565b9150611b9182611b2a565b604082019050919050565b60006020820190508181036000830152611bb581611b79565b9050919050565b6000611bc78261162d565b9150611bd28361162d565b9250828201905080821115611bea57611be96118e9565b5b92915050565b6000604082019050611c0560008301856117c1565b611c126020830184611818565b9392505050565b7f4554480000000000000000000000000000000000000000000000000000000000600082015250565b6000611c4f60038361186c565b9150611c5a82611c19565b602082019050919050565b6000606082019050611c7a60008301856115d2565b611c8760208301846115d2565b8181036040830152611c9881611c42565b90509392505050565b7f546865206e6577206e756d626572206f66206d6178207469636b65747320697360008201527f20746f6f20736d616c6c21000000000000000000000000000000000000000000602082015250565b6000611cfd602b8361186c565b9150611d0882611ca1565b604082019050919050565b60006020820190508181036000830152611d2c81611cf0565b9050919050565b6000604082019050611d4860008301856115d2565b611d5560208301846115d2565b9392505050565b6000606082019050611d7160008301856115d2565b611d7e6020830184611818565b8181036040830152611d8f81611c42565b90509392505050565b7f4552433230000000000000000000000000000000000000000000000000000000600082015250565b6000611dce60058361186c565b9150611dd982611d98565b602082019050919050565b6000606082019050611df960008301856115d2565b611e066020830184611818565b8181036040830152611e1781611dc1565b90509392505050565b6000604082019050611e3560008301856117c1565b611e4260208301846117c1565b9392505050565b600081519050611e5881611637565b92915050565b600060208284031215611e7457611e736115fc565b5b6000611e8284828501611e49565b91505092915050565b6000606082019050611ea060008301866117c1565b611ead60208301856117c1565b611eba6040830184611818565b949350505050565b60008115159050919050565b611ed781611ec2565b8114611ee257600080fd5b50565b600081519050611ef481611ece565b92915050565b600060208284031215611f1057611f0f6115fc565b5b6000611f1e84828501611ee5565b91505092915050565b7f5472616e73666572206f6620455243323020746f6b656e73206661696c656400600082015250565b6000611f5d601f8361186c565b9150611f6882611f27565b602082019050919050565b60006020820190508181036000830152611f8c81611f50565b9050919050565b6000606082019050611fa860008301856115d2565b611fb560208301846115d2565b8181036040830152611fc681611dc1565b90509392505050565b7f4e487b7100000000000000000000000000000000000000000000000000000000600052601260045260246000fdfea264697066735822122024cd44099c0ce7cceb5db8b7adb49393563cfe4844b45a05369849573a3b713e64736f6c6343000814003360806040523480156200001157600080fd5b506040516200269a3803806200269a833981810160405281019062000037919062000161565b604051806020016040528060008152506200005881620000e260201b60201c565b5080600360006101000a81548173ffffffffffffffffffffffffffffffffffffffff021916908373ffffffffffffffffffffffffffffffffffffffff16021790555033600460006101000a81548173ffffffffffffffffffffffffffffffffffffffff021916908373ffffffffffffffffffffffffffffffffffffffff16021790555050620004f4565b8060029081620000f391906200040d565b5050565b600080fd5b600073ffffffffffffffffffffffffffffffffffffffff82169050919050565b60006200012982620000fc565b9050919050565b6200013b816200011c565b81146200014757600080fd5b50565b6000815190506200015b8162000130565b92915050565b6000602082840312156200017a5762000179620000f7565b5b60006200018a848285016200014a565b91505092915050565b600081519050919050565b7f4e487b7100000000000000000000000000000000000000000000000000000000600052604160045260246000fd5b7f4e487b7100000000000000000000000000000000000000000000000000000000600052602260045260246000fd5b600060028204905060018216806200021557607f821691505b6020821081036200022b576200022a620001cd565b5b50919050565b60008190508160005260206000209050919050565b60006020601f8301049050919050565b600082821b905092915050565b600060088302620002957fffffffffffffffffffffffffffffffffffffffffffffffffffffffffffffffff8262000256565b620002a1868362000256565b95508019841693508086168417925050509392505050565b6000819050919050565b6000819050919050565b6000620002ee620002e8620002e284620002b9565b620002c3565b620002b9565b9050919050565b6000819050919050565b6200030a83620002cd565b620003226200031982620002f5565b84845462000263565b825550505050565b600090565b620003396200032a565b62000346818484620002ff565b505050565b5b818110156200036e57620003626000826200032f565b6001810190506200034c565b5050565b601f821115620003bd57620003878162000231565b620003928462000246565b81016020851015620003a2578190505b620003ba620003b18562000246565b8301826200034b565b50505b505050565b600082821c905092915050565b6000620003e260001984600802620003c2565b1980831691505092915050565b6000620003fd8383620003cf565b9150826002028217905092915050565b620004188262000193565b67ffffffffffffffff8111156200043457620004336200019e565b5b620004408254620001fc565b6200044d82828562000372565b600060209050601f83116001811462000485576000841562000470578287015190505b6200047c8582620003ef565b865550620004ec565b601f198416620004958662000231565b60005b82811015620004bf5784890151825560018201915060208501945060208101905062000498565b86831015620004df5784890151620004db601f891682620003cf565b8355505b6001600288020188555050505b505050505050565b61219680620005046000396000f3fe608060405234801561001057600080fd5b506004361061009d5760003560e01c80638d9c21d4116100665780638d9c21d41461017e5780638da5cb5b1461019a578063a22cb465146101b8578063e985e9c5146101d4578063f242432a146102045761009d565b8062fdd58e146100a257806301ffc9a7146100d25780630e89341c146101025780632eb2c2d6146101325780634e1273f41461014e575b600080fd5b6100bc60048036038101906100b79190611515565b610220565b6040516100c99190611564565b60405180910390f35b6100ec60048036038101906100e791906115d7565b61027a565b6040516100f9919061161f565b60405180910390f35b61011c6004803603810190610117919061163a565b61035c565b60405161012991906116f7565b60405180910390f35b61014c60048036038101906101479190611916565b6103f0565b005b61016860048036038101906101639190611aa8565b610498565b6040516101759190611bde565b60405180910390f35b61019860048036038101906101939190611515565b6105a7565b005b6101a2610657565b6040516101af9190611c0f565b60405180910390f35b6101d260048036038101906101cd9190611c56565b61067d565b005b6101ee60048036038101906101e99190611c96565b610693565b6040516101fb919061161f565b60405180910390f35b61021e60048036038101906102199190611cd6565b610727565b005b600080600083815260200190815260200160002060008473ffffffffffffffffffffffffffffffffffffffff1673ffffffffffffffffffffffffffffffffffffffff16815260200190815260200160002054905092915050565b60007fd9b67a26000000000000000000000000000000000000000000000000000000007bffffffffffffffffffffffffffffffffffffffffffffffffffffffff1916827bffffffffffffffffffffffffffffffffffffffffffffffffffffffff1916148061034557507f0e89341c000000000000000000000000000000000000000000000000000000007bffffffffffffffffffffffffffffffffffffffffffffffffffffffff1916827bffffffffffffffffffffffffffffffffffffffffffffffffffffffff1916145b806103555750610354826107cf565b5b9050919050565b60606002805461036b90611d9c565b80601f016020809104026020016040519081016040528092919081815260200182805461039790611d9c565b80156103e45780601f106103b9576101008083540402835291602001916103e4565b820191906000526020600020905b8154815290600101906020018083116103c757829003601f168201915b50505050509050919050565b60006103fa610839565b90508073ffffffffffffffffffffffffffffffffffffffff168673ffffffffffffffffffffffffffffffffffffffff161415801561043f575061043d8682610693565b155b156104835780866040517fe237d92200000000000000000000000000000000000000000000000000000000815260040161047a929190611dcd565b60405180910390fd5b6104908686868686610841565b505050505050565b606081518351146104e457815183516040517f5b0599910000000000000000000000000000000000000000000000000000000081526004016104db929190611df6565b60405180910390fd5b6000835167ffffffffffffffff8111156105015761050061171e565b5b60405190808252806020026020018201604052801561052f5781602001602082028036833780820191505090505b50905060005b845181101561059c5761056c610554828761093990919063ffffffff16565b610567838761094d90919063ffffffff16565b610220565b82828151811061057f5761057e611e1f565b5b6020026020010181815250508061059590611e7d565b9050610535565b508091505092915050565b600360009054906101000a900473ffffffffffffffffffffffffffffffffffffffff1673ffffffffffffffffffffffffffffffffffffffff163373ffffffffffffffffffffffffffffffffffffffff1614610637576040517f08c379a000000000000000000000000000000000000000000000000000000000815260040161062e90611f37565b60405180910390fd5b6106538282600160405180602001604052806000815250610961565b5050565b600460009054906101000a900473ffffffffffffffffffffffffffffffffffffffff1681565b61068f610688610839565b83836109fa565b5050565b6000600160008473ffffffffffffffffffffffffffffffffffffffff1673ffffffffffffffffffffffffffffffffffffffff16815260200190815260200160002060008373ffffffffffffffffffffffffffffffffffffffff1673ffffffffffffffffffffffffffffffffffffffff16815260200190815260200160002060009054906101000a900460ff16905092915050565b6000610731610839565b90508073ffffffffffffffffffffffffffffffffffffffff168673ffffffffffffffffffffffffffffffffffffffff161415801561077657506107748682610693565b155b156107ba5780866040517fe237d9220000000000000000000000000000000000000000000000000000000081526004016107b1929190611dcd565b60405180910390fd5b6107c78686868686610b6a565b505050505050565b60007f01ffc9a7000000000000000000000000000000000000000000000000000000007bffffffffffffffffffffffffffffffffffffffffffffffffffffffff1916827bffffffffffffffffffffffffffffffffffffffffffffffffffffffff1916149050919050565b600033905090565b600073ffffffffffffffffffffffffffffffffffffffff168473ffffffffffffffffffffffffffffffffffffffff16036108b35760006040517f57f447ce0000000000000000000000000000000000000000000000000000000081526004016108aa9190611c0f565b60405180910390fd5b600073ffffffffffffffffffffffffffffffffffffffff168573ffffffffffffffffffffffffffffffffffffffff16036109255760006040517f01a8351400000000000000000000000000000000000000000000000000000000815260040161091c9190611c0f565b60405180910390fd5b6109328585858585610c75565b5050505050565b600060208202602084010151905092915050565b600060208202602084010151905092915050565b600073ffffffffffffffffffffffffffffffffffffffff168473ffffffffffffffffffffffffffffffffffffffff16036109d35760006040517f57f447ce0000000000000000000000000000000000000000000000000000000081526004016109ca9190611c0f565b60405180910390fd5b6000806109e08585610d27565b915091506109f2600087848487610c75565b505050505050565b600073ffffffffffffffffffffffffffffffffffffffff168273ffffffffffffffffffffffffffffffffffffffff1603610a6c5760006040517fced3e100000000000000000000000000000000000000000000000000000000008152600401610a639190611c0f565b60405180910390fd5b80600160008573ffffffffffffffffffffffffffffffffffffffff1673ffffffffffffffffffffffffffffffffffffffff16815260200190815260200160002060008473ffffffffffffffffffffffffffffffffffffffff1673ffffffffffffffffffffffffffffffffffffffff16815260200190815260200160002060006101000a81548160ff0219169083151502179055508173ffffffffffffffffffffffffffffffffffffffff168373ffffffffffffffffffffffffffffffffffffffff167f17307eab39ab6107e8899845ad3d59bd9653f200f220920489ca2b5937696c3183604051610b5d919061161f565b60405180910390a3505050565b600073ffffffffffffffffffffffffffffffffffffffff168473ffffffffffffffffffffffffffffffffffffffff1603610bdc5760006040517f57f447ce000000000000000000000000000000000000000000000000000000008152600401610bd39190611c0f565b60405180910390fd5b600073ffffffffffffffffffffffffffffffffffffffff168573ffffffffffffffffffffffffffffffffffffffff1603610c4e5760006040517f01a83514000000000000000000000000000000000000000000000000000000008152600401610c459190611c0f565b60405180910390fd5b600080610c5b8585610d27565b91509150610c6c8787848487610c75565b50505050505050565b610c8185858585610d57565b600073ffffffffffffffffffffffffffffffffffffffff168473ffffffffffffffffffffffffffffffffffffffff1614610d20576000610cbf610839565b90506001845103610d0f576000610ce060008661094d90919063ffffffff16565b90506000610cf860008661094d90919063ffffffff16565b9050610d08838989858589611105565b5050610d1e565b610d1d8187878787876112b9565b5b505b5050505050565b60608060405191506001825283602083015260408201905060018152826020820152604081016040529250929050565b8051825114610da157815181516040517f5b059991000000000000000000000000000000000000000000000000000000008152600401610d98929190611df6565b60405180910390fd5b6000610dab610839565b905060005b8351811015610fc0576000610dce828661094d90919063ffffffff16565b90506000610de5838661094d90919063ffffffff16565b9050600073ffffffffffffffffffffffffffffffffffffffff168873ffffffffffffffffffffffffffffffffffffffff1614610f1257600080600084815260200190815260200160002060008a73ffffffffffffffffffffffffffffffffffffffff1673ffffffffffffffffffffffffffffffffffffffff16815260200190815260200160002054905081811015610eba57888183856040517f03dee4c5000000000000000000000000000000000000000000000000000000008152600401610eb19493929190611f57565b60405180910390fd5b81810360008085815260200190815260200160002060008b73ffffffffffffffffffffffffffffffffffffffff1673ffffffffffffffffffffffffffffffffffffffff16815260200190815260200160002081905550505b600073ffffffffffffffffffffffffffffffffffffffff168773ffffffffffffffffffffffffffffffffffffffff1614610fad578060008084815260200190815260200160002060008973ffffffffffffffffffffffffffffffffffffffff1673ffffffffffffffffffffffffffffffffffffffff1681526020019081526020016000206000828254610fa59190611f9c565b925050819055505b505080610fb990611e7d565b9050610db0565b50600183510361107f576000610fe060008561094d90919063ffffffff16565b90506000610ff860008561094d90919063ffffffff16565b90508573ffffffffffffffffffffffffffffffffffffffff168773ffffffffffffffffffffffffffffffffffffffff168473ffffffffffffffffffffffffffffffffffffffff167fc3d58168c5ae7397731d063d5bbf3d657854427343f4c083240f7aacaa2d0f628585604051611070929190611df6565b60405180910390a450506110fe565b8373ffffffffffffffffffffffffffffffffffffffff168573ffffffffffffffffffffffffffffffffffffffff168273ffffffffffffffffffffffffffffffffffffffff167f4a39dc06d4c0dbc64b70af90fd698a233a518aa5d07e595d983b8c0526c8f7fb86866040516110f5929190611fd0565b60405180910390a45b5050505050565b60008473ffffffffffffffffffffffffffffffffffffffff163b11156112b1578373ffffffffffffffffffffffffffffffffffffffff1663f23a6e6187878686866040518663ffffffff1660e01b815260040161116695949392919061205c565b6020604051808303816000875af19250505080156111a257506040513d601f19601f8201168201806040525081019061119f91906120cb565b60015b611226573d80600081146111d2576040519150601f19603f3d011682016040523d82523d6000602084013e6111d7565b606091505b50600081510361121e57846040517f57f447ce0000000000000000000000000000000000000000000000000000000081526004016112159190611c0f565b60405180910390fd5b805181602001fd5b63f23a6e6160e01b7bffffffffffffffffffffffffffffffffffffffffffffffffffffffff1916817bffffffffffffffffffffffffffffffffffffffffffffffffffffffff1916146112af57846040517f57f447ce0000000000000000000000000000000000000000000000000000000081526004016112a69190611c0f565b60405180910390fd5b505b505050505050565b60008473ffffffffffffffffffffffffffffffffffffffff163b1115611465578373ffffffffffffffffffffffffffffffffffffffff1663bc197c8187878686866040518663ffffffff1660e01b815260040161131a9594939291906120f8565b6020604051808303816000875af192505050801561135657506040513d601f19601f8201168201806040525081019061135391906120cb565b60015b6113da573d8060008114611386576040519150601f19603f3d011682016040523d82523d6000602084013e61138b565b606091505b5060008151036113d257846040517f57f447ce0000000000000000000000000000000000000000000000000000000081526004016113c99190611c0f565b60405180910390fd5b805181602001fd5b63bc197c8160e01b7bffffffffffffffffffffffffffffffffffffffffffffffffffffffff1916817bffffffffffffffffffffffffffffffffffffffffffffffffffffffff19161461146357846040517f57f447ce00000000000000000000000000000000000000000000000000000000815260040161145a9190611c0f565b60405180910390fd5b505b505050505050565b6000604051905090565b600080fd5b600080fd5b600073ffffffffffffffffffffffffffffffffffffffff82169050919050565b60006114ac82611481565b9050919050565b6114bc816114a1565b81146114c757600080fd5b50565b6000813590506114d9816114b3565b92915050565b6000819050919050565b6114f2816114df565b81146114fd57600080fd5b50565b60008135905061150f816114e9565b92915050565b6000806040838503121561152c5761152b611477565b5b600061153a858286016114ca565b925050602061154b85828601611500565b9150509250929050565b61155e816114df565b82525050565b60006020820190506115796000830184611555565b92915050565b60007fffffffff0000000000000000000000000000000000000000000000000000000082169050919050565b6115b48161157f565b81146115bf57600080fd5b50565b6000813590506115d1816115ab565b92915050565b6000602082840312156115ed576115ec611477565b5b60006115fb848285016115c2565b91505092915050565b60008115159050919050565b61161981611604565b82525050565b60006020820190506116346000830184611610565b92915050565b6000602082840312156116505761164f611477565b5b600061165e84828501611500565b91505092915050565b600081519050919050565b600082825260208201905092915050565b60005b838110156116a1578082015181840152602081019050611686565b60008484015250505050565b6000601f19601f8301169050919050565b60006116c982611667565b6116d38185611672565b93506116e3818560208601611683565b6116ec816116ad565b840191505092915050565b6000602082019050818103600083015261171181846116be565b905092915050565b600080fd5b7f4e487b7100000000000000000000000000000000000000000000000000000000600052604160045260246000fd5b611756826116ad565b810181811067ffffffffffffffff821117156117755761177461171e565b5b80604052505050565b600061178861146d565b9050611794828261174d565b919050565b600067ffffffffffffffff8211156117b4576117b361171e565b5b602082029050602081019050919050565b600080fd5b60006117dd6117d884611799565b61177e565b90508083825260208201905060208402830185811115611800576117ff6117c5565b5b835b8181101561182957806118158882611500565b845260208401935050602081019050611802565b5050509392505050565b600082601f83011261184857611847611719565b5b81356118588482602086016117ca565b91505092915050565b600080fd5b600067ffffffffffffffff8211156118815761188061171e565b5b61188a826116ad565b9050602081019050919050565b82818337600083830152505050565b60006118b96118b484611866565b61177e565b9050828152602081018484840111156118d5576118d4611861565b5b6118e0848285611897565b509392505050565b600082601f8301126118fd576118fc611719565b5b813561190d8482602086016118a6565b91505092915050565b600080600080600060a0868803121561193257611931611477565b5b6000611940888289016114ca565b9550506020611951888289016114ca565b945050604086013567ffffffffffffffff8111156119725761197161147c565b5b61197e88828901611833565b935050606086013567ffffffffffffffff81111561199f5761199e61147c565b5b6119ab88828901611833565b925050608086013567ffffffffffffffff8111156119cc576119cb61147c565b5b6119d8888289016118e8565b9150509295509295909350565b600067ffffffffffffffff821115611a00576119ff61171e565b5b602082029050602081019050919050565b6000611a24611a1f846119e5565b61177e565b90508083825260208201905060208402830185811115611a4757611a466117c5565b5b835b81811015611a705780611a5c88826114ca565b845260208401935050602081019050611a49565b5050509392505050565b600082601f830112611a8f57611a8e611719565b5b8135611a9f848260208601611a11565b91505092915050565b60008060408385031215611abf57611abe611477565b5b600083013567ffffffffffffffff811115611add57611adc61147c565b5b611ae985828601611a7a565b925050602083013567ffffffffffffffff811115611b0a57611b0961147c565b5b611b1685828601611833565b9150509250929050565b600081519050919050565b600082825260208201905092915050565b6000819050602082019050919050565b611b55816114df565b82525050565b6000611b678383611b4c565b60208301905092915050565b6000602082019050919050565b6000611b8b82611b20565b611b958185611b2b565b9350611ba083611b3c565b8060005b83811015611bd1578151611bb88882611b5b565b9750611bc383611b73565b925050600181019050611ba4565b5085935050505092915050565b60006020820190508181036000830152611bf88184611b80565b905092915050565b611c09816114a1565b82525050565b6000602082019050611c246000830184611c00565b92915050565b611c3381611604565b8114611c3e57600080fd5b50565b600081359050611c5081611c2a565b92915050565b60008060408385031215611c6d57611c6c611477565b5b6000611c7b858286016114ca565b9250506020611c8c85828601611c41565b9150509250929050565b60008060408385031215611cad57611cac611477565b5b6000611cbb858286016114ca565b9250506020611ccc858286016114ca565b9150509250929050565b600080600080600060a08688031215611cf257611cf1611477565b5b6000611d00888289016114ca565b9550506020611d11888289016114ca565b9450506040611d2288828901611500565b9350506060611d3388828901611500565b925050608086013567ffffffffffffffff811115611d5457611d5361147c565b5b611d60888289016118e8565b9150509295509295909350565b7f4e487b7100000000000000000000000000000000000000000000000000000000600052602260045260246000fd5b60006002820490506001821680611db457607f821691505b602082108103611dc757611dc6611d6d565b5b50919050565b6000604082019050611de26000830185611c00565b611def6020830184611c00565b9392505050565b6000604082019050611e0b6000830185611555565b611e186020830184611555565b9392505050565b7f4e487b7100000000000000000000000000000000000000000000000000000000600052603260045260246000fd5b7f4e487b7100000000000000000000000000000000000000000000000000000000600052601160045260246000fd5b6000611e88826114df565b91507fffffffffffffffffffffffffffffffffffffffffffffffffffffffffffffffff8203611eba57611eb9611e4e565b5b600182019050919050565b7f43616c6c6572206973206e6f7420746865206d61726b6574706c61636520636f60008201527f6e74726163740000000000000000000000000000000000000000000000000000602082015250565b6000611f21602683611672565b9150611f2c82611ec5565b604082019050919050565b60006020820190508181036000830152611f5081611f14565b9050919050565b6000608082019050611f6c6000830187611c00565b611f796020830186611555565b611f866040830185611555565b611f936060830184611555565b95945050505050565b6000611fa7826114df565b9150611fb2836114df565b9250828201905080821115611fca57611fc9611e4e565b5b92915050565b60006040820190508181036000830152611fea8185611b80565b90508181036020830152611ffe8184611b80565b90509392505050565b600081519050919050565b600082825260208201905092915050565b600061202e82612007565b6120388185612012565b9350612048818560208601611683565b612051816116ad565b840191505092915050565b600060a0820190506120716000830188611c00565b61207e6020830187611c00565b61208b6040830186611555565b6120986060830185611555565b81810360808301526120aa8184612023565b90509695505050505050565b6000815190506120c5816115ab565b92915050565b6000602082840312156120e1576120e0611477565b5b60006120ef848285016120b6565b91505092915050565b600060a08201905061210d6000830188611c00565b61211a6020830187611c00565b818103604083015261212c8186611b80565b905081810360608301526121408185611b80565b905081810360808301526121548184612023565b9050969550505050505056fea264697066735822122021131c0be1399cbbaddc6662fab5ce027a00f29b91e05a373a6e3abc38c99f1964736f6c63430008140033",
  "linkReferences": {},
  "deployedLinkReferences": {}
}